:100000000C9466000C9478000C9478000C947800A2
:100010000C9478000C9478000C9478000C94780080
:100020000C9478000C9478000C9478000C94780070
:100030000C9478000C9478000C9478000C94780060
:100040000C9478000C9478000C9478000C94780050
:100050000C9478000C9478000C9478000C94780040
:100060000C9478000C9478000C9478000C94780030
:100070000C9478000C9478000C9478000C94780020
:100080000C9478000C9478000C9478000C94780010
:100090000C9478000C9478000C9478000C94780000
:1000A0000C9478000C9478000C9478000C947800F0
:1000B0000C9478000C9478000C9478000C947800E0
:1000C0000C9478000C9478000C94780011241FBED6
:1000D000CFEFD8E0DEBFCDBF21E0A0E0B1E001C0AE
:1000E0001D92A130B207E1F70E9497000C94C9005D
:1000F0000C9400008091000180958BB908959FE2D7
:1001000013C08EB18F7E8EB9E7EEF3E63197F1F72B
:1001100000C000008EB180618EB9E7EEF3E6319742
:10012000F1F700C0000091509111EBCF089511B884
:100130008FEF82B98AB98BB990E39DB98EB90699D0
:100140000FC0809100018E3128F0109200010E94B2
:100150007F0003C08F5F809300010E947A00EFCF81
:10016000059910C080910001811106C08EE1809335
:1001700000010E947F0003C08150809300010E9413
:100180007A00DDCF0499DBCF109200010E947A0043
:06019000D6CFF894FFCF6A
:00000001FF
