S01700004345333135302D50726F6A656374322E7372656386
S11300000C9466000C9483000C9483000C9483007D
S11300100C9483000C9483000C9483000C94830050
S11300200C9483000C9483000C9483000C94830040
S11300300C9483000C9483000C9483000C94F600BD
S11300400C9483000C9483000C9483000C94830020
S11300500C9483000C9483000C9483000C94830010
S11300600C9483000C9483000C9483000C94830000
S11300700C9483000C9483000C9483000C948300F0
S11300800C9483000C9483000C9483000C948300E0
S11300900C9483000C9483000C9483000C948300D0
S11300A00C9483000C9483000C9483000C948300C0
S11300B00C9483000C9483000C9483000C948300B0
S11300C00C9483000C9483000C94830011241FBEB1
S11300D0CFEFD8E0DEBFCDBF11E0A0E0B1E0E6E5B0
S11300E0F5E002C005900D92A830B107D9F721E0E0
S11300F0A8E0B1E001C01D92A232B207E1F70E946C
S1130100B3010C94A9020C940000FC010FB6F894FE
S113011060911E0170911F01809120019091210135
S11301200FBE309721F06083718382839383089597
S1130130CF93DF9380E090E00E948500CB010E9482
S11301403B02C0E0D0E013C00E9436028370907876
S1130150992324F401978C6F9F6F01960196FE01F9
S1130160EE0FFF1FE85FFE4F918380832196C83016
S1130170D10554F3DF91CF91089511B88FEF8AB967
S113018090E39DB992B182B99BB18BB98EB1806372
S11301908EB908959C019BB190689BB99BB1906402
S11301A09BB99BB190619BB99EB190629EB922307C
S11301B0310581F024F42130310541F008952330D4
S11301C0310561F02430310569F008958EB18F7DD9
S11301D08EB908958BB18F7E8BB908958BB18F7BC7
S11301E08BB908958BB18F778BB908951F920F92B5
S11301F00FB60F9211248F939F93EF93FF938091E7
S113020004019091050101969093050180930401E6
S11302101816190644F4EFE6F0E080818E7F80839F
S11302208BB18F7E8BB985E89EE190938500809396
S11302308400FF91EF919F918F910F900FBE0F90CB
S11302401F90189516BC14BC85B5856085BD80E0EB
S113025090E006C0A89BFECF16BC21E025BB01960A
S11302608F309105BCF314BC15BC81E085BB0895A7
S11302709C010097A9F1019782239323892B81F58F
S1130280E0E0F1E0CF01B9010E94C201E61BF70BE7
S11302906E2FE093B2001092B000E1EBF0E08081A9
S11302A0876080838EE1829FA001839F500D11247B
S11302B020E030E00CC0B89BFECF9EB180E18927DE
S11302C08EB96093B20081E087BB2F5F3F4F241744
S11302D035078CF31092B0001092B10081E087BB17
S11302E008959C01215031092430310578F420E02F
S11302F030E041E050E004C0440F551F2F5F3F4FF2
S113030082179307CCF7842F952F089580E090E00F
S113031008950F931F93CF93DF9300E010E017C06D
S1130320E801CC0FDD1FC85FDE4F888199810E94F0
S1130330CA00888199810E9471010E94380180E07D
S113034090E00E94CA000E9422010F5F1F4F80911B
S11303500601909107010817190714F3DF91CF9153
S11303601F910F9108950E94BD000E94980088E09B
S113037090E090930701809306010E94890181E037
S113038090E0089597FB072E16F4009407D077FDAC
S113039009D00E94D60107FC05D03EF490958195C2
S11303A09F4F0895709561957F4F0895AA1BBB1BBD
S11303B051E107C0AA1FBB1FA617B70710F0A61B61
S11303C0B70B881F991F5A95A9F780959095BC0182
S11303D0CD0108958F929F92AF92BF92CF92DF92F8
S11303E0EF92FF92CF93DF93EC01688179818A8148
S11303F09B81611571058105910521F464E279ED14
S11304008BE597E02DE133EF41E050E00E94460296
S113041049015A019B01AC01A7EAB1E40E946502BB
S11304206B017C01ACEEB4EFA50194010E94730250
S1130430DC01CB018C0D9D1DAE1DBF1DB7FF03C09C
S11304400197A109B04888839983AA83BB839F77C6
S1130450DF91CF91FF90EF90DF90CF90BF90AF905E
S11304609F908F9008950E94EA01089580E091E0A2
S11304700E94EA010895A0E0B0E080930001909307
S11304800101A0930201B09303010895052E97FB87
S11304901EF400940E945D0257FD07D00E9478026A
S11304A007FC03D04EF40C945D02509540953095B2
S11304B021953F4F4F4F5F4F0895909580957095CC
S11304C061957F4F8F4F9F4F08950E949A02A59F79
S11304D0900DB49F900DA49F800D911D112408953B
S11304E0B7FF0C9465020E946502821B930B08956A
S11304F0A1E21A2EAA1BBB1BFD010DC0AA1FBB1F24
S1130500EE1FFF1FA217B307E407F50720F0A21B95
S1130510B30BE40BF50B661F771F881F991F1A9402
S113052069F760957095809590959B01AC01BD012C
S1130530CF010895A29FB001B39FC001A39F700D86
S1130540811D1124911DB29F700D811D1124911DD7
S10905500895F894FFCFAA
S10B0556010000000100010096
S9030000FC
