S01700004345333135302D50726F6A656374322E7372656386
S11300000C9466000C9483000C9483000C9483007D
S11300100C9483000C9483000C9483000C94830050
S11300200C9483000C9483000C9483000C94830040
S11300300C9483000C9483000C9483000C94830030
S11300400C9483000C9483000C9483000C94830020
S11300500C9483000C9483000C9483000C94830010
S11300600C9483000C9483000C9483000C94830000
S11300700C9483000C9483000C9483000C948300F0
S11300800C9483000C9483000C9483000C948300E0
S11300900C9483000C9483000C9483000C948300D0
S11300A00C9483000C9483000C9483000C948300C0
S11300B00C9483000C9483000C9483000C948300B0
S11300C00C9483000C9483000C94830011241FBEB1
S11300D0CFEFD8E0DEBFCDBF11E0A0E0B1E0E2EBAE
S11300E0F1E002C005900D92A230B107D9F721E0EA
S11300F0A2E0B1E001C01D92A230B207E1F70E9474
S1130100CE000C94D7000C9400008FEF8AB990E3D2
S11301109DB99BB18BB98EB180638EB908959C0152
S11301209BB190689BB99BB190649BB99BB1906162
S11301309BB99EB190649EB92230310581F024F4BC
S11301402130310541F008952330310561F0243028
S1130150310569F008958BB18F778BB908958BB110
S11301608F7B8BB908958BB18F7E8BB908958EB137
S113017080748EB908958BB181608BB98BB1826024
S11301808BB98BB184608BB988E090E090930101C6
S1130190809300018BB1887F8BB908950E948500FC
S11301A084E090E00E948F000E94BB00FFCFF8948F
S10501B0FFCF7B
S10501B2010046
S9030000FC
