S01700004345333135302D50726F6A656374322E7372656386
S11300000C9466000C9483000C9483000C9483007D
S11300100C9483000C9483000C9483000C94830050
S11300200C9483000C9483000C9483000C94830040
S11300300C9483000C9483000C9483000C94D400DF
S11300400C9483000C9483000C9483000C94830020
S11300500C9483000C9483000C9483000C94830010
S11300600C9483000C9483000C9483000C94830000
S11300700C9483000C9483000C9483000C948300F0
S11300800C9483000C9483000C9483000C948300E0
S11300900C9483000C9483000C9483000C948300D0
S11300A00C9483000C9483000C9483000C948300C0
S11300B00C9483000C9483000C9483000C948300B0
S11300C00C9483000C9483000C94830011241FBEB1
S11300D0CFEFD8E0DEBFCDBF11E0A0E0B1E0EEE1AC
S11300E0F2E002C005900D92A030B107D9F721E0EB
S11300F0A0E0B1E001C01D92A230B207E1F70E9476
S113010000010C940D010C9400008FEF8AB990E368
S11301109DB99BB18BB98EB180638EB908959C0152
S11301209BB190689BB99BB190649BB99BB1906162
S11301309BB99EB190629EB92230310581F024F4BE
S11301402130310541F008952330310561F0243028
S1130150310569F008958BB18F778BB908958BB110
S11301608F7B8BB908958BB18F7E8BB908958EB137
S11301708F7D8EB90895E1E8F0E080818560808309
S113018085E89EE19093850080938400EFE6F0E09B
S11301908081816080837894809100019091010135
S11301A018161906CCF708951F920F920FB60F92E6
S11301B011248F939F93EF93FF938091000190916B
S11301C0010101969093010180930001181619060C
S11301D044F4EFE6F0E080818E7F80838BB18F7EE4
S11301E08BB985E89EE19093850080938400FF910C
S11301F0EF919F918F910F900FBE0F901F901895C4
S11302000E94850084E090E00E948F000E94BB0061
S111021081E090E00E948F00FFCFF894FFCFB2
S9030000FC
