S01700004345333135302D50726F6A656374322E7372656386
S11300000C9466000C9483000C9483000C9483007D
S11300100C9483000C9483000C9483000C94830050
S11300200C9483000C9483000C9483000C94830040
S11300300C9483000C9483000C9483000C94830030
S11300400C94BB000C9483000C9483000C948300E8
S11300500C9483000C9483000C9483000C94830010
S11300600C9483000C9483000C9483000C94830000
S11300700C9483000C9483000C9483000C948300F0
S11300800C9483000C9483000C9483000C948300E0
S11300900C9483000C9483000C9483000C948300D0
S11300A00C9483000C9483000C9483000C948300C0
S11300B00C9483000C9483000C9483000C948300B0
S11300C00C9483000C9483000C94830011241FBEB1
S11300D0CFEFD8E0DEBFCDBF11E0A0E0B1E0E2EBAE
S11300E0F1E002C005900D92A030B107D9F721E0EC
S11300F0A0E0B1E001C01D92AE30B207E1F70E946A
S1130100D0000C94D7000C9400008FEF8AB990E3D0
S11301109DB99BB18BB98EB180638EB908959C0152
S11301209BB190689BB99BB190649BB99BB1906162
S11301309BB99EB190649EB92230310581F024F4BC
S11301402130310541F008952330310561F0243028
S1130150310569F008958BB18F778BB908958BB110
S11301608F7B8BB908958BB18F7E8BB908958EB137
S11301708F7D8EB908951F920F920FB60F9211249E
S11301808F939F9315BC81E090E090930901809335
S113019008019F918F910F900FBE0F901F9018959B
S11301A00E94850084E090E00E948F00FFCFF894C5
S10501B0FFCF7B
S9030000FC
