:100000000C9466000C9483000C9483000C94830081
:100010000C9483000C9483000C9483000C94830054
:100020000C9483000C9483000C9483000C94830044
:100030000C9483000C9483000C9483000C940601B0
:100040000C9483000C9483000C9483000C94830024
:100050000C9483000C9483000C9483000C94830014
:100060000C9483000C9483000C9483000C94830004
:100070000C9483000C9483000C9483000C948300F4
:100080000C9483000C9483000C9483000C948300E4
:100090000C9483000C9483000C9483000C948300D4
:1000A0000C9483000C9483000C9483000C948300C4
:1000B0000C9483000C9483000C9483000C948300B4
:1000C0000C9483000C9483000C94830011241FBEB5
:1000D000CFEFD8E0DEBFCDBF11E0A0E0B1E0E6E7B2
:1000E000F7E002C005900D92A830B107D9F721E0E2
:1000F000A8E0B1E001C01D92A232B207E1F70E9470
:10010000C0020C94B9030C940000FC010FB6F894E3
:1001100060911E0170911F01809120019091210139
:100120000FBE309721F0608371838283938308959B
:10013000CF93DF93C0E0D0E013C00E9446038370EA
:100140009078992324F401978C6F9F6F0196019604
:10015000FE01EE0FFF1FE85FFE4F91838083219623
:10016000C830D10554F3DF91CF91089511B88FEFC6
:100170008AB990E39DB992B182B99BB18BB98EB126
:1001800080638EB908959C019BB190689BB99BB127
:1001900090649BB99BB190619BB99EB190629EB9EE
:1001A0002230310581F024F42130310541F00895E9
:1001B0002330310561F02430310569F008958EB1A6
:1001C0008F7D8EB908958BB18F7E8BB908958BB1D9
:1001D0008F7B8BB908958BB18F778BB908958BB1D5
:1001E00081608BB98BB182608BB98BB184608BB924
:1001F0008091060190910701009739F089309105AF
:1002000024F49BB1809589238BB908951F920F9296
:100210000FB60F9211248F939F93EF93FF938091CA
:1002200004019091050101969093050180930401CA
:100230001816190644F4EFE6F0E080818E7F808383
:100240008BB18F7E8BB985E89EE19093850080937A
:100250008400FF91EF919F918F910F900FBE0F90AF
:100260001F90189516BC14BC85B5856085BD80E0CF
:1002700090E006C0A89BFECF16BC21E025BB0196EE
:100280008F309105BCF314BC15BC81E085BB08958B
:100290008FEF8BB98EB180628EB908959C01009763
:1002A000A9F1019782239323892B81F5E0E0F1E006
:1002B000CF01B9010E94D202E61BF70B6E2FE0932B
:1002C000B2001092B000E1EBF0E0808187608083A3
:1002D0008EE1829FA001839F500D112420E030E029
:1002E0000CC0B89BFECF9EB180E189278EB9609388
:1002F000B20081E087BB2F5F3F4F241735078CF397
:100300001092B0001092B10081E087BB08950E9466
:1003100048018BB18F778BB98BB18F7D8BB98EB143
:100320008F7D8EB98BB18B7F8BB98BB18E7F8BB963
:1003300082E090E00E944E010E94480181E090E03E
:1003400090930701809306010E94980008950E94EF
:1003500048011BB88FED8EB980E490E00E944E01F9
:100360000E94480181E090E090930701809306018C
:100370000E94980008959C012150310924303105D4
:1003800078F420E030E041E050E004C0440F551F15
:100390002F5F3F4F82179307CCF7842F952F089537
:1003A00080E090E008950F931F93CF93DF9300E0D8
:1003B00010E017C0E801CC0FDD1FC85FDE4F888159
:1003C00099810E94C300888199810E94BB010E948B
:1003D0004E0180E090E00E94C3000E9432010F5F56
:1003E0001F4F80910601909107010817190714F318
:1003F000DF91CF911F910F910895CF93DF93C1E0CB
:10040000D0E00EC00E9432010E943201009904C067
:10041000009BFECFC0E0D0E09BB181E089278BB983
:10042000209781F781E090E00E944E018BB18160BE
:100430008BB9DF91CF910895CF93DF93C0E0D0E0E7
:1004400047C066990FC081E090E00E94C30081E040
:1004500090E00E94BB010E944E01669BFECFC1E06E
:10046000D0E032C004990FC082E090E00E94C30047
:1004700082E090E00E94BB010E944E01049BFECFEF
:10048000C2E0D0E021C006990FC083E090E00E9456
:10049000C30083E090E00E94BB010E944E01069BD6
:1004A000FECFC3E0D0E010C007990EC084E090E01A
:1004B0000E94C30084E090E00E94BB010E944E01B4
:1004C000079BFECFC4E0D0E080E090E00E94C30034
:1004D000209709F4B6CFCE01DF91CF9108950F9305
:1004E0001F93CF93DF930E94980081E090E0909358
:1004F00007018093060101E010E03AC080910601F7
:100500009091070109972CF00E94A70100E010E0EC
:100510002FC00E94EF000E94D301C0E0D0E012C0C3
:100520000E941C02FE01EE0FFF1FE85FFE4F2081BC
:1005300031818217930711F4219604C00E9487012C
:1005400000E010E08091060190910701C817D907DB
:100550001CF40115110521F70115110529F001966B
:1005600090930701809306010E9432010E9432019C
:100570000115110519F6DF91CF911F910F91089583
:100580000E94B60080E090E00E948500CB010E94AE
:100590004B030E94FD010E9432010E9432010E9421
:1005A0006F02F7CF97FB072E16F4009407D077FD64
:1005B00009D00E94E60207FC05D03EF49095819593
:1005C0009F4F0895709561957F4F0895AA1BBB1B9F
:1005D00051E107C0AA1FBB1FA617B70710F0A61B43
:1005E000B70B881F991F5A95A9F780959095BC0164
:1005F000CD0108958F929F92AF92BF92CF92DF92DA
:10060000EF92FF92CF93DF93EC01688179818A8129
:100610009B81611571058105910521F464E279EDF5
:100620008BE597E02DE133EF41E050E00E94560367
:1006300049015A019B01AC01A7EAB1E40E9475038C
:100640006B017C01ACEEB4EFA50194010E94830321
:10065000DC01CB018C0D9D1DAE1DBF1DB7FF03C07E
:100660000197A109B04888839983AA83BB839F77A8
:10067000DF91CF91FF90EF90DF90CF90BF90AF9040
:100680009F908F9008950E94FA02089580E091E073
:100690000E94FA020895A0E0B0E0809300019093D8
:1006A0000101A0930201B09303010895052E97FB69
:1006B0001EF400940E946D0357FD07D00E9488032A
:1006C00007FC03D04EF40C946D0350954095309583
:1006D00021953F4F4F4F5F4F0895909580957095AE
:1006E00061957F4F8F4F9F4F08950E94AA03A59F4A
:1006F000900DB49F900DA49F800D911D112408951D
:10070000B7FF0C9475030E947503821B930B089529
:10071000A1E21A2EAA1BBB1BFD010DC0AA1FBB1F05
:10072000EE1FFF1FA217B307E407F50720F0A21B77
:10073000B30BE40BF50B661F771F881F991F1A94E4
:1007400069F760957095809590959B01AC01BD010E
:10075000CF010895A29FB001B39FC001A39F700D68
:10076000811D1124911DB29F700D811D1124911DB9
:060770000895F894FFCF8C
:08077600010000000100010078
:00000001FF
