:100000000C9466000C9483000C9483000C94830081
:100010000C9483000C9483000C9483000C94830054
:100020000C9483000C9483000C9483000C94830044
:100030000C9483000C9483000C9483000C94F600C1
:100040000C9483000C9483000C9483000C94830024
:100050000C9483000C9483000C9483000C94830014
:100060000C9483000C9483000C9483000C94830004
:100070000C9483000C9483000C9483000C948300F4
:100080000C9483000C9483000C9483000C948300E4
:100090000C9483000C9483000C9483000C948300D4
:1000A0000C9483000C9483000C9483000C948300C4
:1000B0000C9483000C9483000C9483000C948300B4
:1000C0000C9483000C9483000C94830011241FBEB5
:1000D000CFEFD8E0DEBFCDBF11E0A0E0B1E0E8E6B1
:1000E000F4E002C005900D92A830B107D9F721E0E5
:1000F000A8E0B1E001C01D92A232B207E1F70E9470
:1001000038010C9432020C940000FC010FB6F894F4
:1001100060911E0170911F01809120019091210139
:100120000FBE309721F0608371838283938308959B
:10013000CF93DF9380E090E00E948500CB010E9486
:10014000C401C0E0D0E013C00E94BF01837090786A
:10015000992324F401978C6F9F6F01960196FE01FD
:10016000EE0FFF1FE85FFE4F918380832196C8301A
:10017000D10554F3DF91CF91089511B88FEF8AB96B
:1001800090E39DB992B182B99BB18BB98EB1806376
:100190008EB908959C019BB190689BB99BB1906406
:1001A0009BB99BB190619BB99EB190629EB9223080
:1001B000310581F024F42130310541F008952330D8
:1001C000310561F02430310569F008958EB18F7DDD
:1001D0008EB908958BB18F7E8BB908958BB18F7BCB
:1001E0008BB908958BB18F778BB908951F920F92B9
:1001F0000FB60F9211248F939F93EF93FF938091EB
:1002000004019091050101969093050180930401EA
:100210001816190644F4EFE6F0E080818E7F8083A3
:100220008BB18F7E8BB985E89EE19093850080939A
:100230008400FF91EF919F918F910F900FBE0F90CF
:100240001F90189516BC14BC85B5856085BD80E0EF
:1002500090E006C0A89BFECF16BC21E025BB01960E
:100260008F309105BCF314BC15BC81E085BB0895AB
:100270000E94BD000E94980088E090E090930701E2
:1002800080930601669909C081E090E00E94CA004F
:10029000669BFECF81E090E021C0049907C082E018
:1002A00090E00E94CA0082E090E018C0069909C060
:1002B00083E090E00E94CA00069BFECF83E090E0BE
:1002C0000DC0079909C084E090E00E94CA00079B16
:1002D000FECF84E090E002C080E090E00E94CA007F
:1002E0000E942201CFCF8F929F92AF92BF92CF9266
:1002F000DF92EF92FF92CF93DF93EC0168817981D7
:100300008A819B81611571058105910521F464E263
:1003100079ED8BE597E02DE133EF41E050E00E946D
:10032000CF0149015A019B01AC01A7EAB1E40E9447
:10033000EE016B017C01ACEEB4EFA50194010E94CB
:10034000FC01DC01CB018C0D9D1DAE1DBF1DB7FF57
:1003500003C00197A109B04888839983AA83BB830E
:100360009F77DF91CF91FF90EF90DF90CF90BF907C
:10037000AF909F908F9008950E947301089580E040
:1003800091E00E9473010895A0E0B0E08093000125
:1003900090930101A0930201B09303010895052EEB
:1003A00097FB1EF400940E94E60157FD07D00E94BF
:1003B000010207FC03D04EF40C94E60150954095E1
:1003C000309521953F4F4F4F5F4F08959095809501
:1003D000709561957F4F8F4F9F4F08950E94230224
:1003E000A59F900DB49F900DA49F800D911D112489
:1003F0000895B7FF0C94EE010E94EE01821B930B4F
:100400000895A1E21A2EAA1BBB1BFD010DC0AA1F55
:10041000BB1FEE1FFF1FA217B307E407F50720F06D
:10042000A21BB30BE40BF50B661F771F881F991FE8
:100430001A9469F760957095809590959B01AC0131
:10044000BD01CF010895A29FB001B39FC001A39F3A
:10045000700D811D1124911DB29F700D811D1124FD
:08046000911D0895F894FFCFEF
:08046800010000000100010089
:00000001FF
