:100000000C9466000C9483000C9483000C94830081
:100010000C9483000C9483000C9483000C94830054
:100020000C9483000C9483000C9483000C94830044
:100030000C9483000C9483000C9483000C94BB00FC
:100040000C9483000C9483000C9483000C94830024
:100050000C9483000C9483000C9483000C94830014
:100060000C9483000C9483000C9483000C94830004
:100070000C9483000C9483000C9483000C948300F4
:100080000C9483000C9483000C9483000C948300E4
:100090000C9483000C9483000C9483000C948300D4
:1000A0000C9483000C9483000C9483000C948300C4
:1000B0000C9483000C9483000C9483000C948300B4
:1000C0000C9483000C9483000C94830011241FBEB5
:1000D000CFEFD8E0DEBFCDBF11E0A0E0B1E0E8E1B6
:1000E000F2E002C005900D92A230B107D9F721E0ED
:1000F000A2E0B1E001C01D92A230B207E1F70E9478
:10010000FD000C940A010C9400008FEF8AB990E373
:100110009DB99BB18BB98EB180638EB908959C0156
:100120009BB190689BB99BB190649BB99BB1906166
:100130009BB99EB190629EB92230310581F024F4C2
:100140002130310541F008952330310561F024302C
:10015000310569F008958BB18F778BB908958BB114
:100160008F7B8BB908958BB18F7E8BB908958EB13B
:100170008F7D8EB908951F920F920FB60F921124A2
:100180008F939F93EF93FF938091000190910101D2
:10019000019690930101809300011816190644F40A
:1001A000EFE6F0E080818E7F80838BB18F7E8BB90C
:1001B00085E89EE19093850080938400FF91EF9104
:1001C0009F918F910F900FBE0F901F90189516BCA6
:1001D00014BC85B5856085BD80E090E006C0A89B15
:1001E000FECF16BC21E025BB01968F3F9105BCF3E5
:1001F00014BC15BC81E085BB08950E94850084E095
:1002000090E00E948F000E94E70081E090E00E9451
:080210008F00FFCFF894FFCF2F
:020218000100E3
:00000001FF
