S01700004345333135302D50726F6A656374322E7372656386
S11300000C9466000C9483000C9483000C9483007D
S11300100C9483000C9483000C9483000C94830050
S11300200C9483000C9483000C9483000C94830040
S11300300C9483000C9483000C9483000C94830030
S11300400C9483000C9483000C9483000C94830020
S11300500C9483000C9483000C9483000C94830010
S11300600C9483000C9483000C9483000C94830000
S11300700C9483000C9483000C9483000C948300F0
S11300800C9483000C9483000C9483000C948300E0
S11300900C9483000C9483000C9483000C948300D0
S11300A00C9483000C9483000C9483000C948300C0
S11300B00C9483000C9483000C9483000C948300B0
S11300C00C9483000C9483000C94830011241FBEB1
S11300D0CFEFD8E0DEBFCDBF11E0A0E0B1E0E4E2B5
S11300E0F7E002C005900D92A630B107D9F721E0E0
S11300F0A6E0B1E001C01D92AA31B207E1F70E9467
S113010097020C9490030C940000FC010FB6F89431
S11301106091160170911701809118019091190155
S11301200FBE309721F06083718382839383089597
S1130130CF93DF93C0E0D0E013C00E941D0383700F
S11301409078992324F401978C6F9F6F0196019600
S1130150FE01EE0FFF1FEA5FFE4F9183808321961D
S1130160C830D10554F3DF91CF91089511B88FEFC2
S11301708AB990E39DB992B182B99BB18BB98EB122
S113018080638EB908959C019BB190689BB99BB123
S113019090649BB99BB190619BB99EB190629EB9EA
S11301A02230310581F024F42130310541F00895E5
S11301B02330310561F02430310569F008958EB1A2
S11301C08F7D8EB908958BB18F7E8BB908958BB1D5
S11301D08F7B8BB908958BB18F778BB908958BB1D1
S11301E081608BB98BB182608BB98BB184608BB920
S11301F08091040190910501009739F089309105AF
S113020024F49BB1809589238BB9089516BC14BC42
S113021085B5856085BD80E090E006C0A89BFECFD3
S113022016BC21E025BB01968F309105BCF314BCAC
S113023015BC81E085BB08958FEF8BB98EB18062C8
S11302408EB908959C010097A9F101978223932305
S1130250892B81F5E0E0F1E0CF01B9010E94A90208
S1130260E61BF70B6E2FE093B2001092B000E1EBA7
S1130270F0E08081876080838EE1829FA001839F6C
S1130280500D112420E030E00CC0B89BFECF9EB18D
S113029080E189278EB96093B20081E087BB2F5F2C
S11302A03F4F241735078CF31092B0001092B10021
S11302B081E087BB08950E941C018BB18F778BB9B5
S11302C08BB18F7D8BB98EB18F7D8EB98BB18B7FC6
S11302D08BB98BB18E7F8BB982E090E00E942201B2
S11302E00E941C0181E090E0909305018093040139
S11302F00E94980008950E941C011BB88FED8EB9CE
S113030080E490E00E9422010E941C0181E090E0C0
S113031090930501809304010E94980008959C0124
S1130320215031092430310578F420E030E041E0F7
S113033050E004C0440F551F2F5F3F4F82179307AF
S1130340CCF7842F952F089580E090E008950F93C3
S11303501F93CF93DF9300E010E017C0E801CC0FA8
S1130360DD1FCA5FDE4F888199810E94C3008881A6
S113037099810E948F010E94220180E090E00E94F6
S1130380C3000E9406010F5F1F4F809104019091EA
S113039005010817190714F3DF91CF911F910F91ED
S11303A00895CF93DF93C1E0D0E015C00E94060109
S11303B00E94060100990BC08BB18E7F8BB981E03E
S11303C090E00E942201009BFECFC0E0D0E09BB1F0
S11303D081E089278BB9209749F78BB181608BB96C
S11303E0DF91CF910895CF93DF93C0E0D0E047C071
S11303F066990FC081E090E00E94C30081E090E024
S11304000E948F010E942201669BFECFC1E0D0E0D2
S113041032C004990FC082E090E00E94C30082E0E1
S113042090E00E948F010E942201049BFECFC2E053
S1130430D0E021C006990FC083E090E00E94C30081
S113044083E090E00E948F010E942201069BFECF70
S1130450C3E0D0E010C007990EC084E090E00E9491
S1130460C30084E090E00E948F010E942201079B58
S1130470FECFC4E0D0E080E090E00E94C30020976B
S113048009F4B6CFCE01DF91CF9108950F931F9356
S1130490CF93DF930E94980081E090E09093050150
S11304A08093040101E010E03AC08091040190912E
S11304B0050109972CF00E947B0100E010E02FC099
S11304C00E94EF000E94A701C0E0D0E012C00E9489
S11304D0F301FE01EE0FFF1FEA5FFE4F2081318121
S11304E08217930711F4219604C00E945B0100E077
S11304F010E08091040190910501C817D9071CF4FC
S11305000115110521F70115110529F001969093A4
S11305100501809304010E9406010E940601011551
S1130520110519F6DF91CF911F910F9108950E9443
S1130530B60080E090E00E948500CB010E94220377
S11305400E94D1010E9406010E9406010E944602F7
S1130550F7CF97FB072E16F4009407D077FD09D048
S11305600E94BD0207FC05D03EF4909581959F4FF3
S11305700895709561957F4F0895AA1BBB1B51E1A7
S113058007C0AA1FBB1FA617B70710F0A61BB70BFF
S1130590881F991F5A95A9F780959095BC01CD01A4
S11305A008958F929F92AF92BF92CF92DF92EF9273
S11305B0FF92CF93DF93EC01688179818A819B81DB
S11305C0611571058105910521F464E279ED8BE5EE
S11305D097E02DE133EF41E050E00E942D03490103
S11305E05A019B01AC01A7EAB1E40E944C036B01E0
S11305F07C01ACEEB4EFA50194010E945A03DC0126
S1130600CB018C0D9D1DAE1DBF1DB7FF03C001970F
S1130610A109B04888839983AA83BB839F77DF911C
S1130620CF91FF90EF90DF90CF90BF90AF909F90CD
S11306308F9008950E94D102089580E091E00E9475
S1130640D1020895A0E0B0E08093000190930101ED
S1130650A0930201B09303010895052E97FB1EF4A5
S113066000940E94440357FD07D00E945F0307FCD7
S113067003D04EF40C944403509540953095219545
S11306803F4F4F4F5F4F08959095809570956195BA
S11306907F4F8F4F9F4F08950E948103A59F900D18
S11306A0B49F900DA49F800D911D11240895B7FF50
S11306B00C944C030E944C03821B930B0895A1E2FB
S11306C01A2EAA1BBB1BFD010DC0AA1FBB1FEE1FC8
S11306D0FF1FA217B307E407F50720F0A21BB30B13
S11306E0E40BF50B661F771F881F991F1A9469F78F
S11306F060957095809590959B01AC01BD01CF01EB
S11307000895A29FB001B39FC001A39F700D811DE6
S11307101124911DB29F700D811D1124911D089506
S1070720F894FFCF77
S1090724010000000100C9
S9030000FC
