S01700004345333135302D50726F6A656374322E7372656386
S11300000C9466000C9483000C9483000C9483007D
S11300100C9483000C9483000C9483000C94830050
S11300200C9483000C9483000C9483000C94830040
S11300300C9483000C9483000C9483000C941A0198
S11300400C9483000C9483000C9483000C94830020
S11300500C9483000C9483000C9483000C94830010
S11300600C9483000C9483000C9483000C94830000
S11300700C9483000C9483000C9483000C948300F0
S11300800C9483000C9483000C9483000C948300E0
S11300900C9483000C9483000C9483000C948300D0
S11300A00C9483000C9483000C9483000C948300C0
S11300B00C9483000C9483000C9483000C948300B0
S11300C00C9483000C9483000C94830011241FBEB1
S11300D0CFEFD8E0DEBFCDBF11E0A0E0B1E0E0EEAD
S11300E0F7E002C005900D92A830B107D9F721E0DE
S11300F0A8E0B1E001C01D92AE31B207E1F70E9461
S1130100F5020C94EE030C940000FC010FB6F89475
S113011060911A0170911B0180911C0190911D0145
S11301200FBE309721F06083718382839383089597
S1130130CF93DF93C0E0D0E013C00E947B038370B1
S11301409078992324F401978C6F9F6F0196019600
S1130150FE01EE0FFF1FE65FFE4F91838083219621
S1130160C830D10554F3DF91CF91089511B88FEFC2
S11301708AB990E39DB992B182B99BB18BB98EB122
S113018080638EB908959C019BB190689BB99BB123
S113019090649BB99BB190619BB99EB190629EB9EA
S11301A02230310581F024F42130310541F00895E5
S11301B02330310561F02430310569F008958EB1A2
S11301C08F7D8EB908958BB18F7E8BB908958BB1D5
S11301D08F7B8BB908958BB18F778BB908958BB1D1
S11301E081608BB98BB182608BB98BB184608BB920
S11301F08091060190910701009739F089309105AB
S113020024F49BB1809589238BB908958EEE95E8EB
S1130210909385008093840010928000E1E8F0E0E0
S1130220808185608083EFE6F0E080818160808357
S1130230789408951F920F920FB60F9211248F9302
S11302409F93EF93FF9380910401909105010F9781
S113025084F48EEE95E890938500809384008091D9
S11302600401909105010196909305018093040186
S113027013C0EFE6F0E080818E7F808310928500CA
S113028010928400109205011092040181E090E024
S11302909093090180930801FF91EF919F918F91B1
S11302A00F900FBE0F901F90189516BC14BC85B507
S11302B0856085BD80E090E006C0A89BFECF16BC9B
S11302C021E025BB01968F309105BCF314BC15BC0D
S11302D081E085BB08958FEF8BB98EB180628EB9B2
S11302E008959C010097A9F1019782239323892BF8
S11302F081F5E0E0F1E0CF01B9010E940703E61BBC
S1130300F70B6E2FE093B2001092B000E1EBF0E037
S11303108081876080838EE1829FA001839F500D3E
S1130320112420E030E00CC0B89BFECF9EB180E1E8
S113033089278EB96093B20081E087BB2F5F3F4F5E
S1130340241735078CF31092B0001092B10081E0AD
S113035087BB08950E946B018BB18F778BB98BB1EA
S11303608F7D8BB98EB18F7D8EB98BB18B7F8BB91D
S11303708BB18E7F8BB982E090E00E9471010E9464
S11303806B0181E090E090930701809306010E9445
S1130390980008950E946B011BB88FED8EB980E41C
S11303A090E00E9471010E946B0181E090E09093C3
S11303B00701809306010E94980008959C01215032
S11303C031092430310578F420E030E041E050E098
S11303D004C0440F551F2F5F3F4F82179307CCF77C
S11303E0842F952F089580E090E008950F931F9334
S11303F0CF93DF9300E010E017C0E801CC0FDD1FBE
S1130400C65FDE4F888199810E94C30088819981EB
S11304100E94DE010E94710180E090E00E94C3000E
S11304200E9455010F5F1F4F8091060190910701B3
S11304300817190714F3DF91CF911F910F910895B5
S1130440CF93DF93C1E0D0E015C00E9455010E9414
S1130450550100990BC08BB18E7F8BB981E090E080
S11304600E947101009BFECFC0E0D0E09BB181E00F
S113047089278BB9209749F78BB181608BB9DF91BC
S1130480CF910895CF93DF93C0E0D0E054C0669934
S11304900FC081E090E00E94C30081E090E00E94E0
S11304A0DE010E947101669BFECFC1E0D0E03FC037
S11304B004990FC082E090E00E94C30082E090E0C3
S11304C00E94DE010E947101049BFECFC2E0D0E0D5
S11304D02EC006990FC083E090E00E94C30083E021
S11304E090E00E94DE010E947101069BFECFC3E0F2
S11304F0D0E01DC007990FC084E090E00E94C300C3
S113050084E090E00E94DE010E947101079BFECF0F
S1130510C4E0D0E00CC08091080190910901892BBE
S113052031F01092090110920801C5E0D0E080E09A
S113053090E00E94C300209709F4A9CFCE01DF9177
S1130540CF9108950F931F93CF93DF930E94980048
S113055081E090E0909307018093060101E010E0B0
S11305603CC0809106019091070109972CF00E94EC
S1130570CA0100E010E031C00E94EF000E94F601C1
S11305800E940601C0E0D0E012C00E944202FE01B7
S1130590EE0FFF1FE65FFE4F208131818217930724
S11305A011F4219604C00E94AA0100E010E0809199
S11305B0060190910701C817D9071CF4011511050C
S11305C021F70115110529F00196909307018093F5
S11305D006010E9455010E9455010115110509F6F5
S11305E0DF91CF911F910F9108950E94B60080E092
S11305F090E00E948500CB010E9480030E942002AB
S11306000E9455010E9455010E94A202F7CF97FB58
S1130610072E16F4009407D077FD09D00E941B031F
S113062007FC05D03EF4909581959F4F08957095F1
S113063061957F4F0895AA1BBB1B51E107C0AA1FF8
S1130640BB1FA617B70710F0A61BB70B881F991F6F
S11306505A95A9F780959095BC01CD0108958F9284
S11306609F92AF92BF92CF92DF92EF92FF92CF937D
S1130670DF93EC01688179818A819B816115710521
S11306808105910521F464E279ED8BE597E02DE194
S113069033EF41E050E00E948B0349015A019B0172
S11306A0AC01A7EAB1E40E94AA036B017C01ACEEA1
S11306B0B4EFA50194010E94B803DC01CB018C0DB9
S11306C09D1DAE1DBF1DB7FF03C00197A109B04812
S11306D088839983AA83BB839F77DF91CF91FF900F
S11306E0EF90DF90CF90BF90AF909F908F90089540
S11306F00E942F03089580E091E00E942F03089543
S1130700A0E0B0E08093000190930101A093020166
S1130710B09303010895052E97FB1EF400940E94E4
S1130720A20357FD07D00E94BD0307FC03D04EF47B
S11307300C94A20350954095309521953F4F4F4F0F
S11307405F4F089590958095709561957F4F8F4F79
S11307509F4F08950E94DF03A59F900DB49F900DB5
S1130760A49F800D911D11240895B7FF0C94AA0332
S11307700E94AA03821B930B0895A1E21A2EAA1BBE
S1130780BB1BFD010DC0AA1FBB1FEE1FFF1FA2173D
S1130790B307E407F50720F0A21BB30BE40BF50B3A
S11307A0661F771F881F991F1A9469F760957095C3
S11307B0809590959B01AC01BD01CF010895A29F46
S11307C0B001B39FC001A39F700D811D1124911D21
S11307D0B29F700D811D1124911D0895F894FFCFCF
S10B07E001000000010001000A
S9030000FC
